{
  "contractName": "demo",
  "abi": [
    {
      "stateMutability": "payable",
      "type": "receive",
      "payable": true
    },
    {
      "inputs": [],
      "name": "getvalue",
      "outputs": [
        {
          "internalType": "uint256",
          "name": "",
          "type": "uint256"
        }
      ],
      "stateMutability": "view",
      "type": "function",
      "constant": true
    },
    {
      "inputs": [],
      "name": "checkbal",
      "outputs": [
        {
          "internalType": "uint256",
          "name": "",
          "type": "uint256"
        }
      ],
      "stateMutability": "view",
      "type": "function",
      "constant": true
    },
    {
      "inputs": [
        {
          "internalType": "address payable",
          "name": "getter",
          "type": "address"
        }
      ],
      "name": "usage_send",
      "outputs": [],
      "stateMutability": "payable",
      "type": "function",
      "payable": true
    }
  ],
  "bytecode": "0x6080604052602d60005534801561001557600080fd5b5061034a806100256000396000f3fe6080604052600436106100385760003560e01c806320ace1d0146100445780633a423cc31461006f57806369bd01c41461008b5761003f565b3661003f57005b600080fd5b34801561005057600080fd5b506100596100b6565b604051610066919061018c565b60405180910390f35b6100896004803603810190610084919061020a565b6100ed565b005b34801561009757600080fd5b506100a061016a565b6040516100ad919061018c565b60405180910390f35b600080670de0b6b3a76400003373ffffffffffffffffffffffffffffffffffffffff16316100e49190610266565b90508091505090565b60008173ffffffffffffffffffffffffffffffffffffffff166108fc349081150290604051600060405180830381858888f19350505050905080610166576040517f08c379a000000000000000000000000000000000000000000000000000000000815260040161015d906102f4565b60405180910390fd5b5050565b60008054905090565b6000819050919050565b61018681610173565b82525050565b60006020820190506101a1600083018461017d565b92915050565b600080fd5b600073ffffffffffffffffffffffffffffffffffffffff82169050919050565b60006101d7826101ac565b9050919050565b6101e7816101cc565b81146101f257600080fd5b50565b600081359050610204816101de565b92915050565b6000602082840312156102205761021f6101a7565b5b600061022e848285016101f5565b91505092915050565b7f4e487b7100000000000000000000000000000000000000000000000000000000600052601260045260246000fd5b600061027182610173565b915061027c83610173565b92508261028c5761028b610237565b5b828204905092915050565b600082825260208201905092915050565b7f5472616e73616374696f6e204a75737420204675636b65642062792073656e64600082015250565b60006102de602083610297565b91506102e9826102a8565b602082019050919050565b6000602082019050818103600083015261030d816102d1565b905091905056fea2646970667358221220eb90146fa3cce9dc1e4ccca3007d3ad62583e689ad684afc842435deb23ada4964736f6c63430008110033",
  "immutableReferences": {},
  "source": "// SPDX-License-Identifier: UNLICENCED\r\npragma solidity ^0.8.7;\r\n\r\ncontract demo{           \r\n    uint val = 45;\r\n    \r\n    function getvalue() public view returns(uint){\r\n        return val;\r\n    }\r\n    \r\n    receive() payable external{                 //just to receive payment from low level transaction (i.e directly from calldata form transaction buttoon)\r\n    }\r\n\r\n    function checkbal() public view returns(uint){\r\n        uint balance = msg.sender.balance/1000000000000000000;\r\n        return balance;\r\n    }\r\n    \r\n    function usage_send(address payable getter) payable public {\r\n        bool result = getter.send(msg.value);                 \r\n        require(result, \"Transaction Just  Fucked by send\");  \r\n    } \r\n\r\n}\r\n",
  "sourcePath": "D:\\Practice Code\\Blockchain Projects\\truffle-create-react-web3_present\\contracts\\demo.sol",
  "compiler": {
    "name": "solc",
    "version": "0.8.17+commit.8df45f5f.Emscripten.clang"
  },
  "schemaVersion": "3.4.11",
  "updatedAt": "2022-12-29T16:25:00.704Z",
  "networkType": "ethereum",
  "devdoc": {
    "kind": "dev",
    "methods": {},
    "version": 1
  },
  "userdoc": {
    "kind": "user",
    "methods": {},
    "version": 1
  }
}